{
  "contractName": "Copyright",
  "abi": [
    {
      "inputs": [],
      "payable": false,
      "stateMutability": "nonpayable",
      "type": "constructor"
    },
    {
      "anonymous": false,
      "inputs": [
        {
          "indexed": false,
          "internalType": "uint256",
          "name": "counter",
          "type": "uint256"
        },
        {
          "indexed": true,
          "internalType": "bytes32",
          "name": "hashId",
          "type": "bytes32"
        },
        {
          "indexed": true,
          "internalType": "string",
          "name": "contentUrl",
          "type": "string"
        },
        {
          "indexed": true,
          "internalType": "address",
          "name": "owner",
          "type": "address"
        },
        {
          "indexed": false,
          "internalType": "uint256",
          "name": "timestamp",
          "type": "uint256"
        },
        {
          "indexed": false,
          "internalType": "string",
          "name": "email",
          "type": "string"
        },
        {
          "indexed": false,
          "internalType": "string",
          "name": "termsOfUse",
          "type": "string"
        }
      ],
      "name": "RegisteredContent",
      "type": "event"
    },
    {
      "constant": true,
      "inputs": [
        {
          "internalType": "bytes32",
          "name": "",
          "type": "bytes32"
        }
      ],
      "name": "copyrightById",
      "outputs": [
        {
          "internalType": "uint256",
          "name": "counter",
          "type": "uint256"
        },
        {
          "internalType": "bytes32",
          "name": "hashId",
          "type": "bytes32"
        },
        {
          "internalType": "string",
          "name": "contentUrl",
          "type": "string"
        },
        {
          "internalType": "address",
          "name": "owner",
          "type": "address"
        },
        {
          "internalType": "uint256",
          "name": "timestamp",
          "type": "uint256"
        },
        {
          "internalType": "string",
          "name": "email",
          "type": "string"
        },
        {
          "internalType": "string",
          "name": "termsOfUse",
          "type": "string"
        }
      ],
      "payable": false,
      "stateMutability": "view",
      "type": "function"
    },
    {
      "constant": true,
      "inputs": [],
      "name": "counter",
      "outputs": [
        {
          "internalType": "uint256",
          "name": "",
          "type": "uint256"
        }
      ],
      "payable": false,
      "stateMutability": "view",
      "type": "function"
    },
    {
      "constant": true,
      "inputs": [],
      "name": "owner",
      "outputs": [
        {
          "internalType": "address payable",
          "name": "",
          "type": "address"
        }
      ],
      "payable": false,
      "stateMutability": "view",
      "type": "function"
    },
    {
      "constant": false,
      "inputs": [
        {
          "internalType": "bytes32",
          "name": "_hashId",
          "type": "bytes32"
        },
        {
          "internalType": "string",
          "name": "_contentUrl",
          "type": "string"
        },
        {
          "internalType": "string",
          "name": "_email",
          "type": "string"
        },
        {
          "internalType": "string",
          "name": "_termsOfUse",
          "type": "string"
        }
      ],
      "name": "addContent",
      "outputs": [],
      "payable": false,
      "stateMutability": "nonpayable",
      "type": "function"
    },
    {
      "constant": false,
      "inputs": [
        {
          "internalType": "bytes32",
          "name": "_hashId",
          "type": "bytes32"
        }
      ],
      "name": "deleteCopyrightedByHash",
      "outputs": [],
      "payable": false,
      "stateMutability": "nonpayable",
      "type": "function"
    },
    {
      "constant": false,
      "inputs": [],
      "name": "extractFunds",
      "outputs": [],
      "payable": false,
      "stateMutability": "nonpayable",
      "type": "function"
    }
  ],
  "bytecode": "0x6080604052600060015534801561001557600080fd5b5033600260006101000a81548173ffffffffffffffffffffffffffffffffffffffff021916908373ffffffffffffffffffffffffffffffffffffffff160217905550610ce9806100666000396000f3fe608060405234801561001057600080fd5b50600436106100625760003560e01c806303a775921461006757806361bc221a1461025a5780638da5cb5b146102785780638ddc0e33146102c2578063ad6dc270146102f0578063f0c4c04e146104b7575b600080fd5b6102586004803603608081101561007d57600080fd5b8101908080359060200190929190803590602001906401000000008111156100a457600080fd5b8201836020820111156100b657600080fd5b803590602001918460018302840111640100000000831117156100d857600080fd5b91908080601f016020809104026020016040519081016040528093929190818152602001838380828437600081840152601f19601f8201169050808301925050505050505091929192908035906020019064010000000081111561013b57600080fd5b82018360208201111561014d57600080fd5b8035906020019184600183028401116401000000008311171561016f57600080fd5b91908080601f016020809104026020016040519081016040528093929190818152602001838380828437600081840152601f19601f820116905080830192505050505050509192919290803590602001906401000000008111156101d257600080fd5b8201836020820111156101e457600080fd5b8035906020019184600183028401116401000000008311171561020657600080fd5b91908080601f016020809104026020016040519081016040528093929190818152602001838380828437600081840152601f19601f8201169050808301925050505050505091929192905050506104c1565b005b6102626107bf565b6040518082815260200191505060405180910390f35b6102806107c5565b604051808273ffffffffffffffffffffffffffffffffffffffff1673ffffffffffffffffffffffffffffffffffffffff16815260200191505060405180910390f35b6102ee600480360360208110156102d857600080fd5b81019080803590602001909291905050506107eb565b005b61031c6004803603602081101561030657600080fd5b81019080803590602001909291905050506108dc565b60405180888152602001878152602001806020018673ffffffffffffffffffffffffffffffffffffffff1673ffffffffffffffffffffffffffffffffffffffff1681526020018581526020018060200180602001848103845289818151815260200191508051906020019080838360005b838110156103a857808201518184015260208101905061038d565b50505050905090810190601f1680156103d55780820380516001836020036101000a031916815260200191505b50848103835286818151815260200191508051906020019080838360005b8381101561040e5780820151818401526020810190506103f3565b50505050905090810190601f16801561043b5780820380516001836020036101000a031916815260200191505b50848103825285818151815260200191508051906020019080838360005b83811015610474578082015181840152602081019050610459565b50505050905090810190601f1680156104a15780820380516001836020036101000a031916815260200191505b509a505050505050505050505060405180910390f35b6104bf610b06565b005b6000801b84141580156104d657506000835114155b80156104e457506000825114155b6104ed57600080fd5b60018060008282540192505081905550610505610b71565b6040518060e0016040528060015481526020018681526020018581526020013373ffffffffffffffffffffffffffffffffffffffff1681526020014281526020018481526020018381525090508060008087815260200190815260200160002060008201518160000155602082015181600101556040820151816002019080519060200190610595929190610bc7565b5060608201518160030160006101000a81548173ffffffffffffffffffffffffffffffffffffffff021916908373ffffffffffffffffffffffffffffffffffffffff1602179055506080820151816004015560a0820151816005019080519060200190610603929190610bc7565b5060c0820151816006019080519060200190610620929190610bc7565b509050503373ffffffffffffffffffffffffffffffffffffffff16846040518082805190602001908083835b6020831061066f578051825260208201915060208101905060208303925061064c565b6001836020036101000a0380198251168184511680821785525050505050509050019150506040518091039020867f693dfae346aad1cac886202f92f4e0cf41cfbacdcce7c498124d42b8cb53d845600154428888604051808581526020018481526020018060200180602001838103835285818151815260200191508051906020019080838360005b838110156107145780820151818401526020810190506106f9565b50505050905090810190601f1680156107415780820380516001836020036101000a031916815260200191505b50838103825284818151815260200191508051906020019080838360005b8381101561077a57808201518184015260208101905061075f565b50505050905090810190601f1680156107a75780820380516001836020036101000a031916815260200191505b50965050505050505060405180910390a45050505050565b60015481565b600260009054906101000a900473ffffffffffffffffffffffffffffffffffffffff1681565b3373ffffffffffffffffffffffffffffffffffffffff1660008083815260200190815260200160002060030160009054906101000a900473ffffffffffffffffffffffffffffffffffffffff1673ffffffffffffffffffffffffffffffffffffffff1614156108d95760008082815260200190815260200160002060008082016000905560018201600090556002820160006108879190610c47565b6003820160006101000a81549073ffffffffffffffffffffffffffffffffffffffff021916905560048201600090556005820160006108c69190610c47565b6006820160006108d69190610c47565b50505b50565b6000602052806000526040600020600091509050806000015490806001015490806002018054600181600116156101000203166002900480601f0160208091040260200160405190810160405280929190818152602001828054600181600116156101000203166002900480156109945780601f1061096957610100808354040283529160200191610994565b820191906000526020600020905b81548152906001019060200180831161097757829003601f168201915b5050505050908060030160009054906101000a900473ffffffffffffffffffffffffffffffffffffffff1690806004015490806005018054600181600116156101000203166002900480601f016020809104026020016040519081016040528092919081815260200182805460018160011615610100020316600290048015610a5e5780601f10610a3357610100808354040283529160200191610a5e565b820191906000526020600020905b815481529060010190602001808311610a4157829003601f168201915b505050505090806006018054600181600116156101000203166002900480601f016020809104026020016040519081016040528092919081815260200182805460018160011615610100020316600290048015610afc5780601f10610ad157610100808354040283529160200191610afc565b820191906000526020600020905b815481529060010190602001808311610adf57829003601f168201915b5050505050905087565b600260009054906101000a900473ffffffffffffffffffffffffffffffffffffffff1673ffffffffffffffffffffffffffffffffffffffff166108fc479081150290604051600060405180830381858888f19350505050158015610b6e573d6000803e3d6000fd5b50565b6040518060e00160405280600081526020016000801916815260200160608152602001600073ffffffffffffffffffffffffffffffffffffffff1681526020016000815260200160608152602001606081525090565b828054600181600116156101000203166002900490600052602060002090601f016020900481019282601f10610c0857805160ff1916838001178555610c36565b82800160010185558215610c36579182015b82811115610c35578251825591602001919060010190610c1a565b5b509050610c439190610c8f565b5090565b50805460018160011615610100020316600290046000825580601f10610c6d5750610c8c565b601f016020900490600052602060002090810190610c8b9190610c8f565b5b50565b610cb191905b80821115610cad576000816000905550600101610c95565b5090565b9056fea265627a7a72315820671b371a91a0a231e224913b83df8b93c4a881840d3b677607d0aa7dab763e3764736f6c63430005100032",
  "source": "pragma solidity ^0.5.0;\r\n \r\ncontract Copyright {\r\n    //Events to log\r\n    event RegisteredContent(uint256 counter, bytes32 indexed hashId, string indexed contentUrl, address indexed owner, uint256 timestamp, string email, string termsOfUse);\r\n\r\n    //Variables to be used\r\n    struct Content {\r\n        uint256 counter;\r\n        bytes32 hashId; // The half keccak256 hash since we can't store the entire 64 bit hash\r\n        string contentUrl;\r\n        address owner;\r\n        uint256 timestamp;\r\n        string email; // We need a valid email to contact the owner of the content\r\n        string termsOfUse;\r\n    }\r\n\r\n    mapping(bytes32 => Content) public copyrightById;\r\n    uint256 public counter = 0;\r\n    address payable public owner;\r\n\r\n    // To setup the owner of the contract\r\n    constructor() public {\r\n        owner = msg.sender;\r\n    }\r\n\r\n    //To add new content to copyright the blockchain\r\n    function addContent(bytes32 _hashId, string memory _contentUrl, string memory _email, string memory _termsOfUse) public {\r\n        //Check that the most important values are not empty\r\n        require(_hashId != 0 && bytes(_contentUrl).length != 0 && bytes(_email).length != 0);\r\n\r\n        counter += 1;\r\n        Content memory newContent = Content(counter, _hashId, _contentUrl, msg.sender, now, _email, _termsOfUse);\r\n\r\n        copyrightById[_hashId] = newContent;\r\n        emit RegisteredContent(counter, _hashId, _contentUrl, msg.sender, now, _email, _termsOfUse);\r\n    }\r\n\r\n    //To delete something if you're the owner\r\n    function deleteCopyrightedByHash(bytes32 _hashId) public {\r\n        if(copyrightById[_hashId].owner == msg.sender) {\r\n            delete copyrightById[_hashId];\r\n        }\r\n    }\r\n\r\n    //To extract the funds locked in this smart contract\r\n    function extractFunds() public {\r\n        owner.transfer(address(this).balance);\r\n    }\r\n}",
  "sourcePath": "C:/Solidity-Project/copyright/contracts/Copyright.sol",
  "compiler": {
    "name": "solc",
    "version": "0.5.16+commit.9c3226ce.Emscripten.clang"
  },
  "schemaVersion": "3.2.3",
  "updatedAt": "2020-10-22T21:55:36.478Z",
  "devdoc": {
    "methods": {}
  },
  "userdoc": {
    "methods": {}
  }
}